:020000041000EA
:1000000000B5324B212058609868022188439860DF
:10001000D860186158612E4B002199600221596106
:100020000121F02299502B49196001219960352056
:1000300000F044F80222904214D00621196600F024
:1000400034F8196E01211966002018661A6600F04E
:100050002CF8196E196E196E052000F02FF8012189
:100060000842F9D1002199601B49196000215960AB
:100070001A491B48016001219960EB211966A021F2
:10008000196600F012F800219960164914480160C1
:100090000121996001BC002800D000471248134993
:1000A000086003C880F30888084703B5996A0420EC
:1000B0000142FBD001200142F8D103BD02B5186610
:1000C0001866FFF7F2FF186E186E02BD00000240BE
:1000D000000000180000070000035F00212200005C
:1000E000F4000018222000A00001001008ED00E03C
:1000F00000000000000000000000000074B24E7A12
:1001000000200420F7010010C3010010C5010010F9
:10011000C1010010C1010010C1010010C101001097
:10012000C1010010C1010010C1010010C701001081
:10013000C1010010C1010010C9010010CB01001065
:10014000CD010010CD010010CD010010CD01001037
:10015000CD010010CD010010CD010010CD01001027
:10016000CD010010CD010010CD010010CD01001017
:10017000CD010010CD010010CD010010CD01001007
:10018000CD010010CD010010CD010010CD010010F7
:10019000CD010010CD010010CD010010CD010010E7
:1001A000CD010010CD010010CD010010CD010010D7
:1001B000CD010010CD010010CD010010CD010010C7
:1001C00000BE00BE00BE00BE00BE00BEEFF3058054
:1001D000103800BEF2EB887190960010B4960010B3
:1001E0003802001090A31AE71E481F49086006C88D
:1001F00081F3088810471D480068002801D019487D
:10020000F3E70DA40ECC002902D000F012F8F9E7B4
:100210001749184A002000E001C19142FCD116495B
:100220008847164988471649884700BEFDE701C937
:1002300001C29A42FBD37047B4960010C000002060
:10024000C8140020BCAA00100000042000000420F4
:10025000BCAA0010001004200010042000000000C0
:10026000704700000000000008ED00E0000000D032
:10027000C81400205C4D0320615D0010690300106C
:10028000595D0010F8B5C0460448054B10B58342CF
:1002900003D0044B002B00D0984710BDC814002099
:1002A000C81400200000000006480749091A8B10F6
:1002B000C90FC91810B5491003D0044B002B00D04A
:1002C000984710BDC8140020C8140020000000008A
:1002D00010B5074C2378002B09D1FFF7D5FF054B4C
:1002E000002B02D0044800E000BF0123237010BDA2
:1002F000D0A8012000000000F48B0010054B10B5C1
:10030000002B03D00449054800E000BFFFF7CCFFF5
:1003100010BDC04600000000D4A80120F48B0010DE
:1003200010B50022002102F06FFF0E4C2378002B45
:1003300000D010BD01F062FD01F09EFB01F022FE35
:10034000D02380221B0659689201114208D15A61BC
:10035000012380222370D02312021B069A61E8E752
:100360009A61F5E77C0F002070B507F0A1FF00212E
:10037000002007F071FC0D2002F0DAFFD02480236A
:1003800024069B0163620F2002F0D2FF80231B0230
:100390000C20636202F0CCFF80235B01636201F0FA
:1003A0000BF901F0E5FA01F061FC01F087FD02F0C4
:1003B00033FA0A21012007F0EFF8154C154D164EBF
:1003C00014E0FA220023920003F05CFB2B68226801
:1003D000C01A904208D39B1830782B6007F080FF3A
:1003E000012233785340337001F042F9012000219B
:1003F000404206F0DDFA2368002BF5D002F00CFA3B
:100400000029DED1FA21890003F0FEFADEE7C046BA
:10041000780F0020344D03205B4D0320F0B5C64615
:1004200000B5B8B00100322202A808F041F9D24963
:1004300002A808F073F9D14D0400696808F0C6F805
:10044000002800D187E02000A96808F0BFF8002844
:1004500000D177E12000E96808F0B8F8002800D161
:1004600079E12000296908F0B1F8002800D174E191
:100470002000696908F0AAF8002800D16FE1200087
:10048000A96908F0A3F8002800D16AE12000E96911
:1004900008F09CF8002800D165E12000296A08F0E6
:1004A00095F8002800D160E12000696A08F08EF814
:1004B000002800D15BE12000A96A08F087F8002835
:1004C00000D156E12000E96A08F080F80B260028E8
:1004D00042D0AB4C0020210008F020F9002301009D
:1004E00000269846002800D121E10025032D21DDBA
:1004F0002100002008F012F90028F9D10024310071
:10050000A04805F045FE29009F4805F041FE9F4F99
:100510001FAE320021003800013405F039FE1436D8
:10052000A542F6D143460B2B00D908E19F00984B1A
:10053000DB599F461FAB9C46A8004019800014223F
:10054000604408F0B5F82100002008F0E7F8013514
:10055000011ECBD1D2E70126894CF3B22100002045
:10056000984608F0DBF8011EBFD13100854805F040
:100570000FFE0021844805F00BFE43460B2B00D9EB
:10058000DDE09F00834BDB599F4601F0B5FA002860
:1005900000D10BE10400804B804DC61823882A004F
:1005A0003F210FA805F09AFB0FA808F053F80FA9F8
:1005B0000200012007F09AF8012007F059F8012005
:1005C00000214042023406F0F3F9B442E6D16B4612
:1005D000D91D0A23012201200B7007F087F80120A2
:1005E00007F046F801200021404206F0E1F9002022
:1005F00002E001F0C9FB002038B080BCB846F0BD75
:1006000005226749012007F071F80A2301220FA98A
:100610000B70012007F06AF8012007F029F800208C
:10062000EAE701F0EBFB01F027FA01F0ABFCD02385
:1006300080221B0659689201114200D088E05A615D
:100640000020D9E7012C7AD10A2200211FA808F046
:100650003BFA01F00BFA0020CEE7012C6FD10A2201
:1006600000211FA808F030FA01F080FC0020C3E749
:10067000022C64D10A22002124A808F05BF90A2286
:10068000050000211FA808F01FFA06000728C6DC95
:100690006B1E9D41032300246D429D4308352000BD
:1006A00000220021013402F0AFFD082CF7D1002216
:1006B0003C4B29001A7030003B4B013202F0D0FD58
:1006C000D02380221B0612025A61B9E7012C36D1D1
:1006D0000A2200211FA808F0F7F901F04DFC0020C4
:1006E0008AE7022C2BD10A2200211FA808F0ECF97E
:1006F0000A220400002124A808F0E6F981B2A0B281
:1007000001F0F0F9002077E7022C18D10A2200212D
:100710001FA808F0D9F90A220400002124A808F033
:10072000D3F90100200001F01BFB002064E7002149
:10073000144805F02DFD0021134805F029FD012086
:10074000404259E7022607E70021080003F01CF8A1
:1007500000209A6150E70326FEE60426FCE6052603
:10076000FAE60626F8E60726F6E60826F4E609265F
:10077000F2E60A26F0E6C046F88B0010800F002053
:10078000FC8B0010008C0010108C0010248C0010CA
:10079000548C0010848C0010A0860100488C00103E
:1007A0004C8C00107C0F0020210300100D22014909
:1007B0002FE7C046388C001070B5C0B0012827D193
:1007C00000237C220021322601A800936C4603F00E
:1007D000A7FF6E4420AD01222900012006F0F8FE9B
:1007E00000280BD02B780A2B08D01A00613A192A5E
:1007F00010D8203B23700134B442ECD180226946EA
:10080000280003F093FF6846FFF708FE002806D192
:1008100040B070BD23700134A642DCD1EEE7280061
:1008200007F018FF040006220649281803F07EFF8F
:100830002900621D012006F059FF012006F018FF73
:10084000E6E7C046B48C0010FA22024B92001A6010
:100850007047C046780F0020FA22014B1A6070479B
:10086000780F0020014B024A1A607047780F002071
:10087000C4090000FA22024B92001A607047C04679
:10088000780F002000487047C88E0010004870475D
:10089000DC8E001010B5054C8D222000044903F0B9
:1008A00045FF07232000637010BDC0463048032079
:1008B000A48D001000487047388E001070B5041EDB
:1008C00028D0032835D005282ED81C4BA400E65884
:1008D000300007F0BFFEC0B2011C1F2815D8C9B2F6
:1008E000002823D00023164DAA1CF05C0133DCB293
:1008F00010800232A142F8D8C0230131C9B24900A8
:100900009B0019432800298070BD1F21C9B200280F
:10091000E8D10BE00A4D094B02221968A81C03F02C
:1009200005FFC1218900EDE70020EDE70549044DF1
:10093000E8E71121044805F027FDC6E7B00F0020C5
:10094000D8AE012002030000184D0320F8B50021A5
:100950000C2002F075F80121224AA025136800201E
:100960008B431360802201271F4EED0552043B008C
:100970008340AB511D4B81019C4661440B681C00B8
:1009800014401342FAD101300828F0D1FF22184B4D
:100990001849EA508022184B12061A601A60102279
:1009A000164B1A60164B1A6801231A400A60154A42
:1009B000154912681A400A60144A12681340144A12
:1009C000136020001F21013402F0EAFB082CF8D14B
:1009D0000122104B10491B6813400B600F4BDA715A
:1009E000F8BDC04600003050440400000C00005028
:1009F0001C04000000100540D01030500020305082
:100A00000000054014000540141005402800054072
:100A100028100540B8010540B811054048180020CD
:100A20008022F0B58B4C0300E56AE06A5200616AEF
:100A30001040154200D1A8E0257A0131FF3A9143D8
:100A4000012D00D1C4E00020022D00D09CE000293F
:100A500000D1D1E055307E351A705D709870D87035
:100A6000022900D1C7E0AA261A715D719E71DE715C
:100A7000042900D1C4E01A725D729872D8720629F6
:100A800000D1C0E01A735D739E73DE73082900D134
:100A9000BCE01A745D749874D8740A2900D1B8E067
:100AA0001A755D759E75DE750C2900D1B4E055226E
:100AB0007F3D2B301D7658769A76DA760E2900D156
:100AC000ADE01D7758779E77DE77102900D1A9E039
:100AD0002027DD550137D8550137DA550137DA556A
:100AE000122900D1A1E00137DD550137D855013772
:100AF000DE550137DE55142900D199E00137DD5567
:100B00000137D8550137DA550137DA55162900D1A2
:100B100091E00137DD550137D8550137DE550137F2
:100B2000DE55182900D189E00137DD550137D85548
:100B30000137DA550137DA551A2900D181E001373A
:100B4000DD550137D8550137DE550137DE551C29F3
:100B500000D179E00137DD550137D8550137DA5535
:100B60000137DA551E2900D171E0193A9D5401323E
:100B7000985401329E5401329E5440381F3A636AA1
:100B8000934235D39B1A6362F0BD227A012A12D0B8
:100B9000022AF9D155225D1C00292FD01A542A545B
:100BA000D2430230D2B201394028F5D12023626A03
:100BB000D31A6362E8E75522814205D01A54D24322
:100BC0000130D2B24028F7D1636A1B1A6362DBE7B7
:100BD0000020552281265D1C814206D01E542A54D5
:100BE000D2430230D2B24028F6D1636A8342ECD2BB
:100BF00000236362C8E704204208C0E74308D6E741
:100C000008204208BBE70C204208B8E71020420841
:100C1000B5E714204208B2E718204208AFE71C20CD
:100C20004208ACE720204208A9E724204208A6E7B2
:100C300028204208A3E72C204208A0E730204208E1
:100C40009DE7342042089AE73820420897E73C2085
:100C5000420894E748180020F0B5C04CDE46226CEC
:100C6000236B57464E4645461343226D4D21134391
:100C7000226EE0B513433D22615CA25C8BB00A4357
:100C80005D21615C0A4300D041E103216D32A25C29
:100C90008A46002A00D03AE100238022C821A350CE
:100CA0006367E367636A49021A008B4200D90A004E
:100CB000A267A26A934200D99B1A8422277A02A9CA
:100CC0007B43A3500023802223610593F823520223
:100CD0005B0202920393C02310221B0306A8049315
:100CE00003F024FD102206A902A803F01FFDE3680B
:100CF0005E1EF6193203F301134380220393236A25
:100D00005202934200D3964BE26A9F01D20700D56C
:100D10005F01052002F0A8FC924902F075FE6421F3
:100D2000784302F071FE237A5843FF2801D88020CF
:100D300040008D4B984200D918000306000A1B0C96
:100D400000041843894A049B00211A400193884BF0
:100D5000029013430493320002AB864807F0CCFBA9
:100D6000052002F081FC8022236A06005202934291
:100D700000D37B4BE26A9F01D20700D55F010520BB
:100D800002F072FC774902F03FFE6421784302F0E2
:100D90003BFE0100257A6943FF2901D880214900E3
:100DA000714B994200D919003000090A02F02CFE5B
:100DB000012323677D2800D8B3E0FB2800D8B2E0E8
:100DC00083087D2B00D8B0E0C3087D2B00D8AEE0AF
:100DD00003097D2B00D8ACE043097D2B00D8AAE0A5
:100DE00083097D2B00D8A8E0C3097D2B00D8A6E09D
:100DF000030A7D2B00D8A4E0430A7D2B00D8A3E092
:100E0000830A7D2B00D8A2E0C30A7D2B00D8A1E085
:100E10008026760126676F1E29007B1E9F413000C9
:100E200002F0F2FDA022544B544C5549BF00D205AC
:100E30003B43544D1160546090601361524B3D43ED
:100E40009346321919605A6098601D614F4D7300C6
:100E50003D43A8464E4D1A1929606A604246A86073
:100E60002A614C4DF3183D43A8464B4D1A19296091
:100E70006A604246A8602A61484DF3183D43A8467F
:100E8000474D1A1929606A604246A8602A61454D9B
:100E9000F3183D43A846444D1A1929606A6042463A
:100EA000A8602A61414DF3183D43A846404D1A19E8
:100EB00029606A604246A8602A613E4AF31815001C
:100EC0003D433D4F1B1939607B60B8603D61EFF3D6
:100ED000108672B6012127485A460368883C8B4326
:100EE0000B4303608623DB00D1500C2001F0A8FDEA
:100EF00001F092FCA061E16186F310885346E37132
:100F00000BB0F0BCBB46B246A946A046F0BD0322DA
:100F10009246002B00D1BFE60023637202339A464B
:100F2000BAE6012677E7022674E7042672E7082668
:100F300070E710266EE720266CE740266AE78026D9
:100F400068E78026760065E78026B60062E780269F
:100F5000F6005FE7802636015CE7C04648180020AF
:100F6000FFFF000040420F0000FFFF00FFFF0A3EAE
:100F7000000005800000305021080600D018002035
:100F800020003050211006004000005021180600BB
:100F90008000005021200600C000005021280600DB
:100FA00000010050213006004001005021380600A9
:100FB0008001005021000600C0010050F0B5DE465F
:100FC00057464E464546E0B5A9B0002928D0AC4C5E
:100FD000AC4A05009046A379461805E01300042AA0
:100FE00025D80135AE421BD05A1CD2B2A271297845
:100FF000E31859700123E3566078002BEEDB0F28CD
:1010000009D8A14B80001B589F46237A002B00D1A2
:1010100029E1FFF721FE0023A3710135AE42E3D1A0
:1010200029B0F0BCBB46B246A946A046F0BDA38895
:1010300062881B04134399460300803BDBB24E2BAE
:10104000E9D842469B00D3589F46E379023B012BE7
:10105000E1D80423012199468C4AE37113680C20DE
:101060008B431360002101F0EBFC01F0D5FB4B46F4
:10107000E371D0E7052002F0F7FA854983089B4623
:10108000824602F0C1FC83490200684604F012FE69
:1010900008AB9C46012362464720137020337E4AEA
:1010A0006B4401321870107801330028F9D1022105
:1010B0007A4A187059704E30023301321870107825
:1010C00001330028F9D1032118705970981C6B4620
:1010D0001A78002A09D0030069461F0001313A70CE
:1010E0000A7801331800002AF7D1232343705346AE
:1010F0009B0E837053469B0CC37053469B0A03712F
:101100005B46437121238371203B03728F3343720B
:10111000503BC372383B0373393343733F3B837394
:101120000E339A460021824467460170C171817274
:10113000C173E24508D053463900DA1B002006F09F
:10114000D5FA3F18BA45F6D1002006F091FA0023EF
:10115000A37162E704225249002006F0C7FA00207A
:1011600006F086FA0023A37157E7E379012B01D03B
:10117000FFF7ECFB402200214A4803F0D1FA00239C
:10118000A3714AE70321C23802F016FC4B46000166
:101190002018DA0E010001233D311A400A70494639
:1011A0000200490E3C320B4013704B46DB01023A01
:1011B000DB0E13704B469B039B0F53704B4603870C
:1011C0000023A37129E70321C13802F0F5FB4A4649
:1011D00003300301E3185A600023A3711DE70321C4
:1011E000C03802F0E9FB4B460330000123500023D6
:1011F000A37112E7E379012B01D0FFF7A7FB4B4660
:10120000E3625B0738D4012302224946090700D470
:1012100013004A46D206D21713404A469206D21706
:10122000134023720023A371F7E6E379012B01D069
:10123000FFF78CFB4B461A04920B1B0C0133043254
:101240009B009A4214D36262A3620023A371E4E676
:10125000E379012B01D0FFF779FB4B460133236281
:101260000023A371D9E60433E3710023A371D4E60C
:101270001A00A3626262E8E700230122C5E7C046C4
:1012800048180020748F0010348F00100000305078
:1012900000093D00248F0010E88E0010048F00101C
:1012A0001C8F001078180020F0B557464E46454672
:1012B000DE460823E0B5BC4C1F00E56F83B0A946AD
:1012C00002E0013F002F72D04A460123A021934043
:1012D000B648C9050A58134200D189E00B50802353
:1012E000E3588C469A46C8214B46266F9D01F00074
:1012F00050444902654402F087FB84222300A05831
:10130000883359189346696086425ED2831B98469B
:1013100013004246E250E5794B46072201339346DB
:10132000C8211A405346E26798194902914602F0D3
:101330006BFB8023E150032DC3D14645C1D8F30098
:101340004345BED93100404602F05EFB0500081E51
:1013500000D101E15B464D442B40217A1D0002F093
:1013600053FBA022D2059446AB01634498604346E8
:10137000F0183100013802F047FB0823191A8342A4
:101380009FD00720BC468A4EA023DB059846AA01C1
:101390004244D368EF0233403B43013501391361C6
:1013A00005400029F0D16746013F002F8CD1012173
:1013B000804A0C2013688B431360002101F040FB2E
:1013C00001F02AFA0523E37112E0E579022D16D027
:1013D0000121784A0C2013688B431360002101F02F
:1013E0002FFB01F019FA04235A46E3710023A3509E
:1013F00003B0F0BCBB46B246A946A046F0BD53447C
:101400001900237A9846012B70D0238E70089B46D2
:10141000A38E002866D040008146627A894400206D
:1014200001924A46AC46B94600925F46B346060072
:1014300002E0009881424ED08A4650460088023130
:101440000D0038408342F4D1019A0AE00132D2B251
:10145000D31C1B01E75AE31838009B880126184368
:1014600035D11301E3183D331B78002BEED0301E2D
:10147000AC465E464F4600D062720323E371230000
:1014800062468833D31A9946A56A636AC821581BF5
:10149000434658434B464902181A02F0B5FA4846EB
:1014A0002161310002F0B0FA43465D43721AAA424C
:1014B00065D2AD1BA8468844842342460325E250EA
:1014C000E36F266F99468023E3589A4624E70098F5
:1014D00001928142B0D1301E65465E464F46019A68
:1014E00000D062728423B046E650E9E7637A8A1935
:1014F00003331B01E05CE3181B79002EF2D0B146E8
:10150000AC46BA469346060001E0594548D00A0069
:1015100012780131080032409A42F6D10027627AEF
:101520000AE00132D2B2D31C1B01E65CE31835009D
:101530001B7901271D430DD11301E3183D331B789F
:10154000002BEED0BB465B464E4684465746002BEA
:1015500092D192E76272D8E75B46013D4D441D404F
:10156000A023DB059C46AA016244D36810490B40C6
:10157000E9020B4313615B4601351D40F7E601218B
:101580000C4A0C2013688B431360002101F058FAB9
:1015900001F042F904230022E3718033E25027E78F
:1015A0004E46654657469DE7481800201C0400003B
:1015B000FF87FFFF0000305030B5FF2085B006F0F8
:1015C000E5FF0121224806F095FE224B02A9019376
:1015D00001AB0293204B1E48039306F0B5FE882210
:1015E0001E4B1F4D5201E8601A60D022FF230024D9
:1015F0001206936211690B40D36120001F2101F094
:10160000CFFD200000220021013401F0E3FD082C71
:10161000F3D100210C2001F013FA0C20114901F044
:101620002DFAFF22104B00211A6028000F4AEC68A7
:1016300003F076F80123FA222B72802392005B00DC
:101640002A626B6280235B00EC60AB6205B030BD48
:10165000000030500840104002FF0000000003402E
:1016600048180020A912001014240050889001008E
:10167000F0B5DE4657464E464546E0B5002095B0EB
:1016800005F070FF002818D0B44C2778002F23D025
:10169000E379043B012B04D8002006F04BF83F28E7
:1016A0003DD8002005F084FF00282DD115B0F0BCF6
:1016B000BB46B246A946A046F0BDA84B1A78002A00
:1016C000F4D1DB79012B01D0FFF740F94022002152
:1016D000A34803F025F8E9E70021A24A2000E568C5
:1016E00003F01EF8FA2080218022012380004900A7
:1016F0002062616252000020E5602372A2622370C2
:1017000005F056FF0028D1D004A94022002005F0A2
:101710005FFF011ECAD004A8FFF750FCC6E7656A48
:10172000002D18D0E379042B04D1237A012B75D036
:10173000022B13D004AE3000FFF772F90500002D24
:1017400000D1E5712A003100002005F0CFFF002014
:1017500005F08EFFA5E7E57104AEF3E7C821226925
:101760006B009818490202F04FF92300E26A8833AF
:101770005918D20500D4A5E0002291460292802299
:10178000120290469C4604AEB2469346434632004F
:10179000A8462E004D46B9466746002001970392A1
:1017A00019E0002837D0471E1B043B435F463B43EC
:1017B000574608C743461B1A98464B46BA460293FB
:1017C000012013000435EA1C013E3F2A00D9ADE098
:1017D000002E00D1B3E0019A914217D002390A8855
:1017E0005204520C9A42DCD1013080B25845EAD101
:1017F0005D481A040243504604C05C4A824694463F
:101800004A4600200435E0440292DCE71100C82279
:1018100052028918E2E713000120D4E7C8212369A6
:101820004902E81802F0F0F82300E26A88335918F8
:10183000D20563D57F208046FF2000228346180012
:1018400004AEB14680271300B446019017E0002A89
:1018500035D0561E3F023743802637434E463780E9
:101860000226B246666A0700B21A62620122D144B9
:101870000233581C013D3F286AD8002D6BD00198D7
:10188000814217D04646013908783040B842DED14F
:101890000132D2B2802AECD158463A02024348467D
:1018A000028002229246626AD144803A6262023326
:1018B0000022DEE7C821824649025144E2E70122C4
:1018C0000700D6E72800022209E002390F88013814
:1018D0003780402A0CD0961C002809D0320004AE74
:1018E000023EB6189942F0D1C82149025918ECE7D6
:1018F0005308ED1A656204AE150023E704A801221F
:10190000461E08E001390878B054402A09D0501C1E
:10191000954206D002009942F4D1C82149025918D3
:10192000F0E7AD1A656204AE15000BE7029BA9460D
:10193000039E4546002B00D065624D4602E7029BA0
:10194000A946039E4546002B00D065624D46F6E64B
:1019500066461D00F6E666461D00F0E648180020C3
:101960007818002088900100FFFF00000080FFFF32
:10197000F0B502218BB0314806F0BCFC304B6A4612
:101980000693304B02A907932F4B2C48089303234F
:10199000938406AB02932D4BD026039306F0D4FC20
:1019A0002B4F80253860122001F0C2FC0721122045
:1019B00001F0F6FB132436062D032000013401F05C
:1019C000B7FCB5621D2CF8D1002380220593F823C3
:1019D00052025B0202920393C02302A91B0310224E
:1019E00006A8049302F0A2FE06A9102202A802F0A3
:1019F0009DFEA023A9225B020293164B12040492BF
:101A0000059301230D4C009312220121200006F0C2
:101A100015FD3A6802AB0121200006F06DFD02229F
:101A20002368934323600C4A0C4B1A600C4A5A609B
:101A30000C4A9A600C4A1A610BB0F0BD000030509D
:101A4000A08027A0420001E00A4000E007FF00005C
:101A500048B00120408209042400305000020050A8
:101A60004CB1012050C3000025C00600014B186096
:101A70007047C046C80F00200221134A8320136814
:101A800080008B431360A022104BFE31D205D15051
:101A90008021490413580B42FCD180221F210C4B9A
:101AA00012061A601A600B4B1A68074B5A610A4AF1
:101AB00012680A40D1315A501A68EE390A431A6046
:101AC000064A074BDA6270470000305044040000B9
:101AD000E8103050C80F002048B001204CB1012060
:101AE00000020050E023C9B2024A00040902014387
:101AF000D150704700003050A0228423D2059B00B3
:101B0000D3580020DB0100D4004870474CB10120BD
:101B1000F0B54E46DE4657464546504CE0B5226885
:101B20006668A768E4684E49A4464E4C9046A146B4
:101B3000802464020B684A688868A346C96883B039
:101B400000E0019B019398450BD9474C65685C46C2
:101B5000254206D14C469D006559434C25615C1CCD
:101B60000194B2420FD2404D6C688025AD022C42E8
:101B700009D1541CFF34A400A2464C465546645972
:101B8000394D01326C61B84212D2374D6C688025F4
:101B9000ED022C420CD18024A400A246824454467B
:101BA000A400A2464C46554664592F4D0130AC6105
:101BB000614512D22C4D6C6880252D032C420CD12E
:101BC000C024A400A2468A445446A400A2464C461F
:101BD00055466459244D0131EC619845B1D88024B3
:101BE000A402A0468024E402A3461F4BB2420CD2BA
:101BF00045465C682C4208D1541CFF34A400A24620
:101C00004C465546645901325C61B8420FD25D467C
:101C10005C682C420BD18024A400A2468244544626
:101C2000A400A2464C465546645901309C6161456A
:101C3000DCD280255C682D032C42D7D1C024A400BF
:101C4000A2468A445446A400A2464C4655466459CE
:101C50000131DC61B242D8D2CAE7C046444D03200C
:101C6000004D03200838032000002050F0B5DE4668
:101C700057464E464546E0B5334B8FB00A93334B3B
:101C80006A460B93002313860AAB0693304B314808
:101C900006A9079306F058FB2F4B08249B461860B3
:101CA000200001F045FB20000621013401F078FA04
:101CB0000C2CF5D101238026F82700249A467602C1
:101CC0007F0200230593C02310221B0302A90AA848
:101CD00004930296039702F029FD10220AA906A890
:101CE00002F024FD082399468023A1444A465B0361
:101CF00013430993194B174D0893A0235B020693D6
:101D00005346A34028001900984606F0F3FA5346BC
:101D100021004A4600932800012306F08FFB5A4613
:101D20002100126806AB280006F0E6FB42462B684D
:101D3000013493432B60042CC3D10FB0F0BCBB46DD
:101D4000B246A946A046F0BDA080016027A043008E
:101D500005FF000000002050D848032000000C4080
:101D600030B503280BD8064A8400A358FF2B06D8A9
:101D70000002C018034D800001334151A35030BD13
:101D8000444D03200838032000230120144A15493C
:101D900030B5136053609360D3600A6802258243B4
:101DA0000A60802210481206026002600F48036039
:101DB0000C68AC430C600E4C02352260226043601C
:101DC0000C68AC430C600B4C0435226022608360CD
:101DD0000C68AC430C6008490A600A60C36030BDFF
:101DE000444D032000002050D0102050004D03200F
:101DF000E81020500011205018112050F0B5C646B0
:101E000000B500F0EFF8254B012019681F23194099
:101E1000234B00241A68D82582431A6080220226A8
:101E2000804620481206026002601F4804270460B2
:101E300059511D68B446B5431D601C4D2A602A6087
:101E4000F025446059511D68BD431D60184D2A603E
:101E50002A6084256D00846059511E68013DFF3D54
:101E6000AE431E60134E3260326090225200C46056
:101E7000995042461C68144362461C60186810431F
:101E800018601968394319601A680B482A431A60A8
:101E900000F01AF980BCB846F0BDC046D84803200F
:101EA00000002050D0102050004D0320E81020509A
:101EB0000011205018112050111B001070B5244C37
:101EC0008AB02000042106F015FA224B224A06931C
:101ED0000893224B06AD0993214B02A920000792DB
:101EE0000393029506F030FA1E4E3060112001F087
:101EF0001FFA0721112001F053F9002380220593D6
:101F0000F82352025B0202920393C02302A91B032F
:101F100010222800049302F009FC2900102202A8D4
:101F200002F004FC104B11220593012302210093BF
:101F3000200006F083FA326802AB0221200006F08E
:101F4000DBFA04222368934323600AB070BDC046C5
:101F500000003050A08027A0420001E0460000E0D1
:101F600008FF0000D448032020020004014B186041
:101F70007047C046D0480320014B18607047C046E8
:101F8000CC4803200E4B10B51968002917D0042047
:101F900080240C4B24061A6882431A600A4A146093
:101FA00014600A4A12689A6199611F21084A1268EE
:101FB0000A40E9315A501A68824302431A6010BD40
:101FC000CC4803200000305000113050D04803208E
:101FD000D448032003BDC04610B5040001F014FC32
:101FE000A04710BD70B58024124B6402124A1C60D9
:101FF00013682342FCD00F2000F034FD00210500BF
:102000000F2000F01DFD00220C4B5A70D0220C4B0B
:1020100012061C60136DDB0704D4012420BF136D6E
:102020001C42FBD0D02329000F201B069B6D00F023
:1020300007FD70BD0420014004000140E04C032076
:1020400004300140F0B5040087B00F200E001700E7
:1020500000F008FD002105000F2000F0F1FC002336
:1020600000220092019301230293D0230496059449
:10207000002600240121022003971B06002C14D007
:102080001A6D1042FCD05C6540BF1A6D114203D13D
:1020900020BF1A6D1142FBD09A6DA2420AD00026D1
:1020A0006C46B200A458E9E79A6D1A6D1142FBD153
:1020B00040BFE5E70136052EF2D929000F2000F0D8
:1020C000BFFC07B0F0BDC0460B4B0C4A10B59342A5
:1020D00001D201235B420A4C0A4A19009268185146
:1020E000FF20A446C0001B50074B0848C8500848B2
:1020F0006144FFF7A7FF10BD000804200000042082
:10210000F407000000ED00E0FC070000D91F0010FC
:10211000D51F0010024B9C46614489000160704746
:1021200040000034F8B5134D134E2C00FF27B54284
:102130001ED22368002B0FD000F046FC01002800BF
:10214000FFF7E8FFA780BFF35F8F0834B4420FD2D8
:1021500023682500002BEFD100F036FC0100280099
:10216000FFF7D8FF2771BFF35F8F0834B442EFD376
:10217000F8BDC046B8140020C814002010B50400F3
:1021800000F022FC01002000FFF7C4FFFF232371B1
:10219000BFF35F8F10BDC04610B50400012000F0F2
:1021A0001FFC044B9C46604480002060BFF35F8F9F
:1021B00010BDC046400000340A4B1968EFF3108090
:1021C00072B60A68002AFCD0BFF35F8F1B68BFF3AA
:1021D0005F8F00221A6080F3108840BF002000212A
:1021E0007047C046304D0320F0B5DE4657464E4698
:1021F0004546E0B585B0EFF30582032313409A000E
:1022000011000392B64A5258904601229A409146D4
:10221000B44B1A604B46B4484363434608229B5E66
:102220009A46002B3DDA43469B881BB2002B00DB0D
:10223000A1E043469B79002B00D0F3E043460824FD
:102240001C5F002C23DB42465269630094461B1935
:10225000DB0063449C68DD68631C00D10FE1A24889
:10226000039984466144826A0B69A61A9B1A9E42AE
:1022700015D34A46036A1A4211D09B4800F0C4FAAB
:10228000241A8D41002D02DCC4D1002CC2D040BFE5
:1022900005B0F0BCBB46B246A946A046F0BD0C61F5
:1022A000EBE7424652695B0093465344DB009B4494
:1022B0005B469E68DF6800F0A7FA801BB9410029E1
:1022C000B1DB002F00DAE5E05B46884A1B699342E8
:1022D00000D1D8E041465A460820085E52880004E2
:1022E00010435A465169984704000D0023002B43C0
:1022F00000D1CFE0002D00DBE8E0361BAF41340019
:102300003D005B469C60DD600021595E002900DADB
:1023100089E743465B6922009C462B004800401831
:10232000C00060448668C768921BBB41002B00DA7E
:1023300079E74346664602000094019519810CE056
:102340007B00DB19DB00F318009801999C68DD68BD
:10235000001BA941002904DB1A000023D75E002FCF
:10236000EEDA5B461F805346138043469B881BB2C0
:10237000002B00DA5DE743461A69EFF3108172B66D
:102380001368002BFCD0BFF35F8F43469B88424607
:102390001BB29A4601235B4293801369BFF35F8FA0
:1023A00000221A6081F310885346002B00DA40E7C0
:1023B00043465B699C46082343449B4653465F0063
:1023C00043465744FF0008229A5E67445E46BC6855
:1023D000FD68002A19DB3B000094019567469C4686
:1023E00004E01E000023F25E002A0BDB0098019936
:1023F00053009B18DB00FB189C68DD68001BA9419B
:102400000029EEDA6346BC461F00534633800021A4
:102410007B5E3A809A46002BD0DA43469B79002BAC
:1024200000D10BE7002342469371434646460821FC
:10243000595E08364B1C00D129E747468C46556942
:1024400002E006004B1C17D04B005B18DB00E818BD
:102450000A00E95E43881BB2002BF2DA01235B42DB
:10246000DC178360C4606245ECD031803B899446C0
:1024700003803A814B1CE7D1B8466446E1E66B1C09
:1024800000D0ECE6F9E65B465C69200023699847DA
:10249000002821D15B4642461B8813811269EFF365
:1024A000108372B611680029FCD0BFF35F8F4246DB
:1024B000594652880A804246514651801269BFF3FC
:1024C0005F8F0021116083F31088ACE6064800F0AE
:1024D0009BF924184D4114E76568246806E7C04657
:1024E000E84C03203C70054000400540E921001005
:1024F00070B52E4C2569002D04D00A212C48FFF719
:1025000009FE70BD2B4E0321300000F073F9E66028
:1025100000F05AFA284B03229C46D02322701B0657
:102520001B6801216370254B6044A3600F2380006A
:1025300020610220638063694942A18019800231D1
:10254000198647311D83585218315A5275325C39F9
:102550009952183201319952183201319952183278
:1025600001319952083518329D5202311832995270
:102570001832013199521832013199521832013111
:1025800099521832013199521832013199520C4B3B
:102590000C49DC600130356200F070FA0121032043
:1025A00000F04EFA084B1D60A7E7C046CC0F002094
:1025B000304D03200040054040000034FFFF100074
:1025C000E84C0320E92100103860054070B5C6468C
:1025D000010000B50469EFF3108C72B62068002882
:1025E000FCD0BFF35F8F02200D5E48696C0080460F
:1025F0006419E4004444002D01DB20884880086908
:10260000BFF35F8F002606608CF31088002D30DB4F
:10261000E36063880598013320615B0406985B0CD6
:10262000A26060611A1C002B21D090B22B04628042
:1026300018430A69EFF3108672B61368002BFCD0BA
:10264000BFF35F8F8B8823808D800B69BFF35F8F13
:1026500000221A6086F310880B7801329A40CB680A
:1026600005498C4663441A6040BCB04670BD0122E7
:10267000DBE701204042F7E73C20000010B543892A
:102680000A14934233DD53009B184269DB009446E1
:1026900004696344EFF3108C72B62268002AFCD000
:1026A000BFF35F8F5A88090494B2090C8A4208D09C
:1026B0000369BFF35F8F00221A608CF3108800203B
:1026C00010BD8022120214435C80012302698371D1
:1026D000BFF35F8F002111608CF3108805490278E9
:1026E0008C469340C268012062441360E8E70020F2
:1026F000E6E7C0463C200000F0B5CE46474680B530
:1027000004000D0083B0EFF30587002F0DD0364A8B
:102710000020536A8B4203D3926A0130A24250D305
:1027200003B0C0BCB946B046F0BD304B9846DB683C
:102730009946434648461E7800F066F80B00494625
:1027400002000436B600715820008E1A2900801A43
:1027500099418F4211DC0ED020BF234A0020536ADA
:10276000AB42DDD3926A0130A242D9D2E81A421EAE
:102770009041C0B2D4E78642EED900F04DF8220075
:102780002B00121A8B41002B20DB00230193184BE6
:102790002200009340462B00FFF718FF011E15DDB5
:1027A000114B2E005A6A95421CD89B6AA34217D33C
:1027B0004046FFF763FF0C4A0020536A9E42AFD8A1
:1027C000D0E7581A421E9041C0B2A9E7064A00203D
:1027D000536AAB42A4D3926A0120A242A0D2C5E7B9
:1027E0009542E5D120BFE3E700400540CC0F002033
:1027F000B921001010B5024A024800F075F810BD6A
:10280000B0900010FC3703200300416A0A00986A68
:10281000596A8A42FAD17047034B596A0A00986A8A
:10282000596A9142FAD170470040054070B50400E2
:102830000D00124A536A1900966A536A8B42FAD104
:102840003000190024184D41AB4211D80ED02B0096
:102850000A494A6A9A42FCD307D1084A02E0516AFF
:10286000994202D1916AA142F9D370BDA642EED934
:10287000012301246442E5175B42E9E7004005407B
:102880008023DB051868000F7047C0460FB400B501
:10289000084883B003F0F2FB049B002B07D005A986
:1028A0001800019103F03EFA034803F0E7FB012012
:1028B00003F050FAD4900010208C0010EFF3108039
:1028C00072B6034A1368002BFCD0BFF35F8F7047CA
:1028D0002C0100D0BFF35F8F0022024B1A6080F3FF
:1028E000108870472C0100D070B5EFF3108C72B6D1
:1028F0000D4D2B68002BFCD0BFF35F8F0724CB0856
:10290000C618C05C01230C40A3401C0004400342D5
:1029100007D103433370BFF35F8F2C608CF31088B3
:1029200070BD1000FFF7B2FF2C0100D0F8B547468C
:10293000CE46884680B5EFF3108C72B6214D2C68D8
:10294000002CFCD0BFF35F8F9A422CD8D408072705
:10295000055D061901241740BC402C421FD00721F9
:102960000127894609E0D408055D06194C4639005F
:102970001440A1400C00294211D001329342F2D2FE
:1029800001204042BFF35F8F00220E4B1A608CF390
:10299000108800280FDBC0BCB946B046F8BD2C43F8
:1029A00010003470EEE7BFF35F8F00232B608CF3D1
:1029B0001088012040424346002BECD00898FFF7D6
:1029C00065FFC0462C0100D0044A1078431CDBB2DE
:1029D000172B00D9102313707047C046E40F002056
:1029E00000B5054B83B00100009318221F23034854
:1029F000FFF79CFF03B000BDE490001000380320F7
:102A00000021044B044ABFF35F8F02C39342FAD103
:102A10007047C046000100D0800100D0054B064A37
:102A20001360064A136053609360D360136153616F
:102A3000936170478080808000E400E004E400E05F
:102A40001F2318401E3B8340002905D0C021044AA3
:102A50004900535013607047802201498B50FAE7B8
:102A600000E100E001228240034B1B6813405A1E24
:102A70009341D8B27047C04600E100E070B50D0048
:102A8000EFF3108672B60F4A1368002BFCD0BFF329
:102A90005F8F0D4B10309B6884001B590B4A93428B
:102AA00003D09D4201D000F095FE074B9B681D515D
:102AB000BFF35F8FBFF35F8F0022024B1A6086F374
:102AC000108870BD240100D000ED00E0CD010010A1
:102AD000F0B557464E46DE464546E0B585B00600A1
:102AE00002911700EFF3108B72B6674A1368002B40
:102AF000FCD0BFF35F8F0025644B5D579A46002DD5
:102B000000DAA4E06B00624C03935B199B009846CB
:102B1000A146C1444B4652469B79103613705D4B1B
:102B2000B2009B68019299580B1B2F2B34D95A4B3A
:102B3000994200D0A4E0039B584A9C46584B6544F8
:102B4000AD006353434602336519E418554B012128
:102B5000043B1B1B1B055B0D13436B80524BEF713A
:102B6000AB80FF23AB71029BAB604B460B4319005C
:102B7000484B019A9B689950BFF35F8FBFF35F8FFB
:102B80000022414B1A608BF3108805B0F0BCBB46A5
:102B9000B246A946A046F0BD01200A008243D3797F
:102BA000BB422FD845464E46130040491B1B5B4194
:102BB0005943090D3A4B63533A4B02356519043BAF
:102BC0005B1B1B05354D5B0D2B4373800426B44600
:102BD000E0444444131F1B1B4C46A17102991B0582
:102BE000A16049465B0D2B43A380314BE771014344
:102BF0001360BDE75800C01880002018C679BE4297
:102C00002BD902000623D356002BF3DA101D82467F
:102C10002848804604267642B446E14450464E4653
:102C2000361A3005400D824656461C4895710643BB
:102C30009680039A944665441D4AAD00641922604B
:102C40004246A371029BA280E771A36090E700F067
:102C5000C1FD002553465D5754E7101D82469088FC
:102C60004005001584464046D4446646043020188A
:102C7000301AE0260005400D360230438046C9E791
:102C800000F0A8FD57E7C046240100D05A4D0320AC
:102C9000E80F002000ED00E0CD01001000E0FFFF94
:102CA00000A1FFFF1810002001BDFFFFAAAA00002D
:102CB0000148804701BD0000F0B5DE4657464E464C
:102CC0004546E0B50C0083B0EFF3108972B65F4A59
:102CD0001368002BFCD0BFF35F8F5D4B9A68030035
:102CE00010339F00D5595B4A904695423DD0A5428E
:102CF0004ED0594EAA1B2F2A37D8584A93461268ED
:102D00009446012261469246824011401F221040A3
:102D10005246824092460191802251465846815047
:102D2000BFF35F8FEFF305829346002A32D1012370
:102D30002A009A439068844208D17CE04B005B18DB
:102D40009B00F318986884422ED01A000621515631
:102D50000029F3DA84424DD0019B002B1FD0C02202
:102D600051463E4B520099501960394B9B68DD51DA
:102D7000BFF35F8FBFF35F8F0022344B1A6089F37C
:102D8000108803B0F0BCBB46B246A946A046F0BDD1
:102D90001500EAE79342CAD000F01CFDC7E7802384
:102DA00051462E4AD150E0E706215956002922DB30
:102DB0004A005018800034188046A0689860E07976
:102DC000D871062020569871002825DBA488F01AB7
:102DD0006405241544440019E0240005400D240234
:102DE0002043988052181E4B9200B6181A7819701A
:102DF000B271B1E71300594600290FD1FF3191712B
:102E00001849918016490A789A71174A9B1B5B41B1
:102E10005A43120D0A709FE71448E2E7144A154915
:102E2000D21A083A5002400D0143998012495208C3
:102E30000A43DA8090E70621515613000029B7DAD9
:102E40005A46002AEAD14546DCE7C046240100D0B4
:102E500000ED00E0CD010010E80F002000E100E0EF
:102E60005A4D032001BDFFFFAAAA000001BD0000CA
:102E70002210002000F0FFFF00F8FFFF70B50124D2
:102E80000443EFF30581EFF3108C72B6214A136807
:102E9000002BFCD0BFF35F8F1F4B05001F4AED1ABC
:102EA0006D416A43120D1E4D8900AE6852B27658CC
:102EB000A6421CD00621595691421CD012215956C7
:102EC000914222D01E215956914220D02A21595692
:102ED0000324914210D0134B19781A708171BFF3FB
:102EE0005F8F00220B4B1A608CF3108870BDAB68AB
:102EF0000D4C5C50EFE700246100091989005B1854
:102F0000FF21997109499980E5E70124F4E702243A
:102F1000F2E7C046240100D0E80F0020AAAA000072
:102F200000ED00E05A4D0320CD01001001BDFFFF70
:102F3000D0231B061B68F0B59A00454690464146D3
:102F4000934ADE465258574693465A1E93413022C2
:102F50004E465B421A4013008E4AE0B5944683B059
:102F6000634401938C4B08269A463500083DEA08D5
:102F70001300019908339B005C58002C27D05B4656
:102F8000002B2ED001230F279946390021402742DC
:102F900017D0524640462B001258203BEA40DB1720
:102FA00013404A4613420CD1072208002A409200DF
:102FB00090400200EB0879483C339B001A502800EF
:102FC000D84724090135002C01D0B542DDD308369D
:102FD000282ECAD103B0F0BCBB46B246A946A046D3
:102FE000F0BD0F2318002040234209D041466A4B10
:102FF00059583300E940283BDB0F0B4200D197E0E2
:103000002309F11F002BE2D00F22100018401A42B2
:1030100011D04246604B9A583300CA40273BDB0F21
:10302000134208D10722CB081140890088405B4A2F
:103030003C339B009850230AB11F002BC7D00F22AE
:10304000100018401A4211D04246534B9A58330090
:10305000CA40263BDB0F134208D10722CB081140A0
:10306000890088404D4A3C339B009850230B711FC8
:10307000002BACD00F22100018401A4245D1230C6F
:10308000311F002BA3D00F22100018401A4258D134
:10309000230DF11E002B9AD00F22100018401A4267
:1030A00062D1230EB11E002B91D00F2210001840C8
:1030B0001A4211D04246384B9A583300CA40223B3C
:1030C000DB0F134208D10722CB081140890088404A
:1030D000324A3C339B009850240F711E002C00D1C3
:1030E00075E7534642469A583300CA40213BDB0FEE
:1030F000134200D06BE70722CB08114089008C40B7
:10310000264A3C339B009C5061E74246224B9A582A
:103110003300CA40253BDB0F1342B0D10722CB0856
:103120001140890088401D4A3C339B009850A6E717
:1031300007231D40AD00A840184B3C329200D050F0
:103140005EE74246144B9A583300CA40243BDB0FDB
:1031500013429DD10722CB081140890088400F4AB5
:103160003C339B00985093E742460B4B9A583300F0
:10317000CA40233BDB0F134293D10722CB081140F7
:1031800089008840054A3C339B00985089E7C04637
:10319000EC37032000410140F84C0320004001407F
:1031A00010B54024084A83009A181268C0005440A1
:1031B000C0222240054CA44663441A60044B9C463E
:1031C0006044416010BDC04604C0014004D00140CD
:1031D000004001400B4B80009C46604400290ED10A
:1031E00000230431002A00D1190080220368520113
:1031F000594094460C2360440B40036070470C21F7
:103200000823EFE704C00140D0231B061B6830B53C
:103210000500581E834110485C4284460720302335
:10322000284023408000EC08814020000B4D3C30BA
:1032300063448000A40041511B19002A05D080225C
:10324000920194466344196030BDC02292019446B5
:1032500063441960F8E7C046004101400040014066
:10326000F8B545469846D0231B06DE461C689B46AB
:103270002B4B57469A46A3004E469946E0B5534617
:1032800016004A469B5807000D00002B34D04346D9
:10329000002B3FD053464A4641469950D0231B0647
:1032A0001C6807201F4A631E9C419446FA081100BF
:1032B000302338408000854064421B4823403C3125
:1032C0006344890092000D509B18002E0ED080227E
:1032D00092019446634401210D201D60FFF7B0FB6D
:1032E000F0BCBB46B246A946A046F8BDC02292013A
:1032F000944663441D60F3E74346002BD1D0534608
:1033000041460D20995000220849FFF7E1FB5B463A
:103310001C68C6E70D200549FFF7CEFCBAE7C0469A
:10332000EC3703200041014000400140312F0010E4
:103330000123D02283404021120693629361094AFF
:1033400083009A181268C0005140C0220A40064902
:103350008C4663441A60054B9C46052360444360D9
:103360007047C04604C0014004D001400040014005
:10337000F8B5040006200D0000F076F9002842D0D0
:10338000364B3749E21853425A418023DB039C46AF
:103390009205344B62441A60334B1A6010000B687C
:1033A0009843FBD12D4B8021E3185A4253412F4AB9
:1033B0005B0049009952062000F056F92900C00030
:1033C00000F022FB0130C3091ED1402701226262B6
:1033D000A362266BF30722D4E36A254B0620E51887
:1033E00000232B60266300F03FF93900800000F0D5
:1033F0000BFB7022E36A5A407E2313402B601D4B67
:1034000023630323A364F8BD1B4A93421ED9002300
:103410001A4A1B4F6262A362266BF307DCD5194B75
:10342000144AE3181A60656AA26A0620AD01AD1855
:1034300000F01AF9144900F0E7FAAD020100280083
:1034400000F0E2FA0021FFF7F1F9C5E74006800E2F
:103450009F011A003F180300B9E7C0460080FCBF77
:1034600008C0004000E0004000F00040384D03205C
:103470002C10000001030000FEFF0000FFFF000011
:10348000C0FF3F00303000004E0E0000F8B5DE46B1
:103490004E4657464546E0B58B4605000A9918004A
:1034A000160000F0B1FA0A9B6C001F02324B64193F
:1034B0009C46A4006444636881469F4200D96760CB
:1034C0002B1FDBB29846012B30D9C02380229B01F1
:1034D000E31812011A60294BAD0059599A46002988
:1034E0001BD1226876017240E026802316404246B6
:1034F0005B01E3181E60012A30D9802380229B01E2
:10350000E31812011A6053464A4667605A51F0BCEC
:10351000BB46B246A946A046F8BD586900F074FA09
:10352000431C5800C0180338FDD2DAE75B46012B74
:10353000CBD1C02303229B01E3181A60023AA3688F
:103540001A42FCD0E0232268760156401E408023B8
:103550000A4A5B019246E3181E60AD005A46216894
:10356000514003220A401A6001225B469A40A36838
:103570001A42FCD0C1E7C046008000400848032042
:10358000F0B546464F46D646C0B51F00344B440002
:103590009C462418A4006444636888461600FF2BE8
:1035A00002D880235B006360031FDBB29A46012BC5
:1035B00030D9C02380229B01E31812011A60294BE5
:1035C00085005959994600291BD12268760172401D
:1035D000E0268023164052465B01E3181E60012A54
:1035E00030D9802380229B01E31812011A608023C6
:1035F0005B0063604B465F51E0BCBA46B146A846EB
:10360000F0BD586900F000FA431C5800C018033898
:10361000FDD2DAE74346012BCBD1C02303229B0125
:10362000E3181A60023AA3681A42FCD0E023226829
:10363000760156401E4080230A4A5B019146E318FA
:103640001E60850042462168514003220A401A60EC
:10365000012342469340A2681342FCD0C1E7C04612
:103660000080004008480320014B8000C05870478C
:1036700008480320F8B5040020481D0017000E007C
:1036800000F0C2F90100380000F0BEF9069B2904E1
:103690001B0319432368002B1EDB194B194DE2183D
:1036A00053425A4180235B019C461203164B6244ED
:1036B0001A60164B1A6017002B689F43FBD1144BFE
:1036C0002660E2182123A06013602368002BFCDA37
:1036D0000823E1601360F8BD3F2322681340B34222
:1036E000DBD1A3681B051B0D8342D6D1EE22E36814
:1036F000D20213408B42D0D1EDE7C046001BB70089
:103700000040FDBF08C0004000E0004000F0004065
:10371000043000008023024A9B000B43D3627047B1
:1037200000800540142310B50100188804331B885D
:10373000984710BD162310B50100188802331B8866
:10374000984710BDF8B54746CE4680B50F1E19D034
:1037500014239946043304000025012698464B465D
:103760001888434621681B88984701C4431E984126
:10377000013540420640AF42F1D13000C0BCB946ED
:10378000B046F8BD0126F8E7142370B50400188888
:1037900004330D001B8803499847290003002000CB
:1037A0009847C04655420000AA23064A1B011360F1
:1037B0008D235B00D3600449044B19605368002BD0
:1037C000FCDA70470040024000B0FA00006002409E
:1037D0007047C04610B50148FFF758F80091001037
:1037E00070B5074D074EB54209D20024013E761B45
:1037F000B60808CD984723000134B342F9D170BD13
:10380000B08B0010EC8B001070B5074D074EB54221
:1038100009D20024013E761BB60808CD9847230044
:103820000134B342F9D170BDE48B0010EC8B001071
:10383000054B064A06491A60064A074B1A601000F3
:103840000B689843FBD1704700E00040BFCDFBFE02
:1038500008C00040FE7F3C0000F00040044BDB6CE1
:10386000002B03D18022034BD2021A607047C0465E
:10387000000011504C201150044A054B1A60054AB3
:103880001368DB018033FBD17047C046FFFFFF01A7
:1038900000F0004008C000404022034B9A675A677E
:1038A0001A67DA667047C04600F0014010B5FFF7AE
:1038B000A7F810BD70B5044D044C2800C022A168C3
:1038C00000F034FFA56070BD0000002000ED00E0B6
:1038D000002310B5294C82B0A367FFF765FF0122D2
:1038E000274B1A60636C012BFCD10322254B1A6015
:1038F000224A936B012BFCD1013300930121224A10
:1039000022480433FFF7B6FE052301210093204A25
:103910002048FFF7AFFE0022022104201E4BFFF7D4
:103920002FFE0022012105201C4BFFF729FE00225B
:10393000002107201A4BFFF723FE00220021082058
:10394000174BFFF71DFE8023DB00009300220021B0
:103950000920134BFFF79AFD0022104B002106208F
:10396000FFF70EFE0420FFF77FFE0E4900F04CF833
:1039700001000020FFF7CEFE02B010BD0080004025
:103980003CB0004030B00040002F68590080024039
:10399000008C864700C00240001BB70040597307E7
:1039A000006CDC0240420F0001480421014B184723
:1039B0003010002045370010124A936F9B0815D233
:1039C0009066D166002905D0FFE7FFE7FFE7516F5A
:1039D000106F704704B580210906C21751400028B6
:1039E00000D0C84305F0B4F8002104BDF0B5146E52
:1039F000556E576F166FFFF7E3FF146655665767EE
:103A00001667F0BD000000D0114A936F9B0813D2D7
:103A100010665166002905D0FFE7FFE7FFE7516F09
:103A2000106F704704B5002801D00020C04305F096
:103A30008FF8002104BDC046F0B5146E556E576F67
:103A4000166FFFF7E5FF1466556657671667F0BDFA
:103A5000000000D094464A4A926F9208624601D212
:103A600028E0C046F0B5464E346E756E776F366FFF
:103A700000F020F89446424A146655665767166768
:103A80006246F0BD94463E4A926F9208624601D269
:103A900054E0C046F0B53A4E346E756E776F366FAF
:103AA00000F04CF89446364A146655665767166718
:103AB0006246F0BD002B24DB11D000293EDA00B5B0
:103AC000C943404200D1013100F038F8C9434042B7
:103AD00000D10131DB43524200D1013300BD002A45
:103AE000EBD1002801D1002905D00020C90FC9075A
:103AF00001D1C043410800B505F01AF800220023A7
:103B000000BD00B500290ADBDB43524200D101337E
:103B100000F014F8C943404200D1013100BDC9434F
:103B2000404200D10131DB43524200D1013300F069
:103B300005F8DB43524200D1013300BD002923D1F7
:103B4000002B18D1002A0CD0BC460D4F38667A667F
:103B500000210023FFE7FFE7FFE77A6F386F674632
:103B60007047002801D00748010000B504F0E0FFCD
:103B70000022002300BD02000B000020002170473E
:103B8000000000D0FFFFFFFF002B00D0BFE0130CB0
:103B900028D1002AE7D080B4114F39667A66FFE752
:103BA000FFE730B4040C7B6F396F1B0423433B6683
:103BB0007A66FFE7FFE7FFE7C04684B27B6F3D6FA1
:103BC0001B0423433B667A66FFE7FFE7C0460023FA
:103BD0002C042D0C7A6F386F00196941B0BC704706
:103BE000000000D0F0B594460025140E01D1120259
:103BF0000835140F01D112010435940F01D1920040
:103C00000235D40F01D152000135D40B0134254FB8
:103C10007C66254C3C660E0C93B2FFE7FFE7FFE79E
:103C20003C6F6643360C7703BE467343DF0B5B0481
:103C3000C01AB941130C7343DB18C91ACE08664386
:103C4000360CB64493B273431F0F1B01C01AB9411F
:103C5000130C73431F0B1B05C01AB941860D8F024D
:103C60003E436643360C092D24DB520A7243801A08
:103C70007703460A6643360C16235B1BDE40DF40A3
:103C8000BF1964466643821B704604350633010043
:103C9000D940A840C01900D30131A24206D2002366
:103CA000F0BD0000000000D0FFFFFFFF121B01303D
:103CB000F3D3F1E709277F1BFE406446A2B27243AB
:103CC000801A00D20139220C7243130C1204821A9A
:103CD00099410B007046043513370100F940A840A4
:103CE000801900D30131002B02D1A2420AD2F0BDCB
:103CF000013000D30131121BFAD2013BF8D1A242AC
:103D000000D2F0BD013000D30131121BF7E7F0B54E
:103D10001C0C00D080E00CB400251C0A04D11B024E
:103D2000160E3343120208351C0B04D11B01160F6B
:103D30003343120104359C0B04D19B00960F33438F
:103D400092000235DC0B02D192185B4101351C0058
:103D5000971864410134464F7C66464C3C660E0C15
:103D6000FFE7FFE7FFE7C0463C6F6643360C77038B
:103D7000BE4697B27743C01B00D20139C01B00D2A8
:103D800001399FB27743C91BC91B170C77437E04C7
:103D9000FF0B801BB941CE086643360C0C2D33DB7C
:103DA000B644120B1F053A431B0B97B27743C01B57
:103DB00000D201399FB27743C91B170C77433E04E9
:103DC0003F0C801BB941860D8F023E436643292775
:103DD0007F1BFE400C3D7746AF40BF1930BCA2B2FE
:103DE000ABB272437343801A9941220C7243130C95
:103DF0001204801A994102000B000137001BA941EF
:103E0000F9D2781E0021F0BD0C277F1BFE407746BB
:103E10007F0BAF40FF19E0E700245D1C07D0144F73
:103E20007D663966FFE7FFE7FFE7FFE73C6F95B286
:103E30009EB265436643401BB141150C1E0C6543A1
:103E4000664336042F0C3E432D04401BB14199427A
:103E500004D202000B0020000021F0BD01D19042ED
:103E6000F7D3801A994101349942F2D3F6E7000062
:103E7000000000D0FFFFFFFF48404140484018B419
:103E80001B4B5B68FC46019308BD04DF1F4100101B
:103E900018B4174B1B68FC46019308BD00DF29418D
:103EA00000109446134A926F920809D2624618B4E1
:103EB0000F4BDB68FC46019308BD0CDFE1430010AB
:103EC0000C4AF0B5146E556E576F166F6246FFF7C9
:103ED000EEFF084A1466556657671667F0BD18B4BA
:103EE000034B9B68FC46019308BD08DF8542001028
:103EF00048160020000000D0FFB55040424050401E
:103F000059404B40594000E0FFB5154F4C00640D3F
:103F100003D0BC4204D10C0314D80020090D0905BC
:103F20005C00640D03D0BC4204D11C030AD80022FB
:103F30001B0D1B0501264B4009D44B4003D58B427A
:103F400000D18242FFBD9942FCD19042FFBD0B439C
:103F5000DB1803431343F5D0C9434918FFBD0000E4
:103F6000FF07000000B5FFF7CFFF804100BDC0464E
:103F700000B5FFF7C9FF01D9002000BD012000BD39
:103F800000B5FFF7B9FF01D9002000BD012000BD39
:103F900000B5FFF7B1FF804100BD012040054A0098
:103FA000121804D85A00121801D8002070470120B6
:103FB000704700000021002805D17047C117484014
:103FC000401AFAD0C90713B5064B1B6898470CBCBA
:103FD000441CA2401005120B0349091B0905194393
:103FE000114310BD2C4D03201F04000010B54C00E0
:103FF000620D8023D218DB00D21A5B057E2A10DD09
:104000009E3A13DACC170903490819435242D140AA
:10401000640001341532202A05DAD0400843604399
:1040200010BD002010BD0846604310BDC80FC01869
:10403000013810BD18B4044B5B6AFC46019308BDFF
:1040400024DF91450010000048160020132370B5AE
:104050001D78012D19D014DD1E48FFF76BFB0600FB
:104060001D48FFF767FB1D4C80223100200000F047
:104070005DFB022D06D01A48FFF754FB194B186060
:1040800070BD164C184BA364F5E7174B134C236017
:104090006360A360E36023616361A361E361236202
:1040A0006362A362E36223636363A363E3632364E2
:1040B0006364A364E36423656365A365E3652366C2
:1040C0006366A366E36623676367A367E367A36426
:1040D000D1E7C04653440000534600004816002074
:1040E0004C3300002C4D0320ED40001007B5604616
:1040F00001880A0A0230DF2AFAD1C9B2820804D341
:10410000028840880004104300E00068014A5050D3
:10411000039007BD481600200FB403BC0CBCF0B5DB
:104120000124E407634000E0F0B50C0DCF0F661EDC
:104130003605891B640503D3C943404200D30131CE
:10414000640D03D0661CF60A07D0E41B00207F0034
:10415000791C89078912803C24031D0DDF0F6E1E18
:1041600036059B1B6D0503D3DB43524200D301335D
:104170006D0D03D06E1CF60A07D0ED1B00227F00E8
:104180007B1C9B079B12803D2D032F1B661B58D465
:10419000A446202E46DA20371400BC401D00BD4046
:1041A000F24033412A4380185941CB0F05D0C9430F
:1041B000C043002264425041514162464D0D28D116
:1041C0000D0D07D100281FD0241940414941013A63
:1041D0000D0DF9D0640006D3013000D30131002C5D
:1041E00001D140084000013A0BD4941CE40A04D1E8
:1041F00012051144DB071944F0BDD907204B1943C0
:1042000000E0D9070020F0BD0029DDD1002CDBD172
:10421000F0BD0132C6074008CD0728434908002EEB
:10422000E1D0D9E73C2E29DA203E40371400BC40CB
:1042300000D00124F24014431A00BB401C43D317A2
:10424000ACE7AC46202F08DA20360400B4400D005D
:10425000B540F84039412843A5E73C2F0CDA203F10
:1042600040360400B44000D00124F8400443080064
:10427000B1400C43C117EAE710001900002494E78D
:104280000000F07FF0B50C0D661E3605891BE60AAE
:104290006405640D02D0651CED0A04D000200121E4
:1042A0000905803C2403A4461C0D671E3F05DB1B4B
:1042B000E70A6405640D02D0651CED0A04D00022F3
:1042C00001231B05803C24037740644497B484B2E7
:1042D00096B27443070C7E43150C6F4380B268435B
:1042E000361802D3012000043F183004350C0019A1
:1042F0007D41844688B29AB250430C0C62431F0C35
:104300007C438EB27E43921902D301263604A4194F
:104310001604170C3618674101BC81B29AB251439A
:10432000040C62431B0C5C4380B25843121802D346
:104330000120000424181004130C401863412D18A8
:104340005E410020474106BC88B293B258430C0C32
:104350006343120C544389B251435B1802D30121C9
:104360000904641819041A0C091862416D185641A1
:104370000020474118BCF902720D1143F0026A0D8A
:104380001043ED020A0D03D16D1940414941013B33
:10439000124E9B1B7600B3420ED26D0007D3013044
:1043A000002671416646354301D1400840001B0597
:1043B000C918E4072144F0BD0BDA013306D10130FE
:1043C00004D101314F0D01D04908F2E7E107002087
:1043D000F0BD013631050020EBE70000FF030000CF
:1043E000F0B51C0D671E3F05DB1BE70A6405640D75
:1043F00002D0661CF60A04D0002201231B05803C73
:104400002403D0252D060026F6432E661E096E666F
:10441000CE0FF619B44649004F0D02D07E1CF60AA5
:1044200003D000200021403F3F033E1BB600B444B0
:10443000013F7F05C91B49082E6F013676089C0293
:10444000950D25437543ED137543AD1301356D107F
:10445000F603761B0CB4CC02450D2C43A2B2B3B2CA
:104460005A43270C7B43350C6F43A4B26C431B1992
:1044700002D3012424043F191C041D0CA4187D41FF
:1044800024196D41009A91B2ACB26143170C7C4380
:104490002B0C5F4392B25A43A41802D30122120498
:1044A000BF182204230C52187B41019C6C431B193A
:1044B000520ED9010A434401A01A81B2B2B251434B
:1044C00003145A43360C734387B27743D617D21975
:1044D00000277E4136049B191704160C7F185E4195
:1044E0007316ED18F301002680337541A90F06D12C
:1044F0006400690AE8055B0A184309D22FE0042228
:10450000944480337541A90AA8059B0A184326D311
:10451000404149412404009A019B0D005543641B0E
:104520004343E41A95B286B27543170C7E43030CDD
:104530005F4392B25A43B61802D301221204BF1845
:104540003204330C52197B4152429C41002C02D45C
:104550000022013051414008CA071043490802B007
:104560006246D7079210084BD218084B9A4203D2E2
:1045700012058918C919F0BD0020002A01DC390094
:10458000F0BD01331905F5E7FD030000FE0700004B
:10459000002200B5203200F004F8080000BD000041
:1045A00000220B150AD410B5944600F031F814140B
:1045B000013400DA0021CB17144C204700200021E1
:1045C00070476244343A0CD40C2A07DA0400914054
:1045D000904052422032D440214310BDD843D943A9
:1045E00010BD203207D40C46944052422032114173
:1045F000D040204310BD0800C917203203D45242D6
:104600002032104110BD1800190010BDC345001024
:104610000A0DCC0F531E1B05C91A520503D3C943FB
:10462000404200D30131520D03D0531CDB0A07D0A6
:10463000121B00206400611C89078912803A120352
:10464000014BD21A70470000FF030000514343435F
:10465000C9188C46110C83B24B4310B4040C61434F
:1046600092B280B2504362431C041B0C001910BC70
:1046700059411304120CC0185141614470470000A5
:10468000132310B512481C78FFF754F80100012CD1
:104690000AD003DD80220F4800F048F80E48FFF7EB
:1046A00041F80E4B186010BD0A4C5422200000F057
:1046B0003DF80B4B6365A365E36523666366A366FC
:1046C000E36623676367A367E3672362E361E5E764
:1046D00053460000481700204C3300002C4D0320A7
:1046E000E546001007B5604601880A0A0230DF2A55
:1046F000FAD1C9B2820804D302884088000410436A
:1047000000E00068014A5050039007BD48170020A0
:1047100001480421014B1847401000204537001084
:10472000014B1B681847000040100020014B5B68DC
:1047300018470000401000209A4200D28854704769
:104740007047C046F8B557464E464546DE46E0B58A
:1047500099460A9B07009A460D9B8846934615008A
:104760000B9E9B0710D10C9B9E420DD29D1B1400EB
:104770000E005D4422004B46013431002020B84732
:10478000A542F7D1B0460B9E002E27D0444675199E
:104790005346AA1B013E985D21004B46B847002EA8
:1047A000F6D123002C0098460D9B9B070FD55B4646
:1047B000E51A0C9BAB420AD94646984622004B4666
:1047C000310020200135B8470134A845F6D8200033
:1047D000F0BCBB46B246A946A046F8BD2C00E3E7B4
:1047E000F0B54F464646D646C0B584B098460EABA7
:1047F0001B78129F994694460D9C109B119EBA07F8
:1048000025D4002E4BD19C4200D3BFE001223A4078
:1048100092461F2C00D9B8E00C9A551E302201E0B8
:10482000202C03D001342A55A342F9D85246002A3D
:104830000DD0A6420BD9202C44D00C9A551E302204
:1048400001E0202C3ED001342A55B442F9D1FA06B9
:104850004DD57A053FD4002C39D10F9B102B00D1B8
:1048600079E00F9B022B00D18AE030230C9A0124BF
:1048700013704B46002B3FD02D230C9A1355013457
:104880000C9B624600930397434602960194FFF700
:1048900059FF04B0E0BCBA46B146A846F0BD0122BB
:1048A00015003D40AA463A422FD04A46002A02D17E
:1048B0000C323A4200D0013E9C42BAD21F2CABD9F6
:1048C000202E27D92024FA06DAD57A0503D4A3426C
:1048D0002DD0A6422BD00F9B102B32D0022B20D0F4
:1048E000202CCDD030220C9B1B191A700134202CA7
:1048F000C6D04B46002BBFD17B070DD43B07BFD59D
:1049000020230C9A13550134BAE79C429FD21F2CE6
:1049100000D881E720249AE72B230C9A1355013401
:10492000AEE7202CACD00C9B1B1901343AE0631E7F
:10493000012C92D00F9A102A2AD0022A2FD01C00C4
:10494000D0E7BB060ED4202C9AD00C9B1A19013448
:1049500078231370C4E7BB060DD478230C9A012486
:104960001370BFE7202C00D18AE758220C9B1B193B
:104970001A700134B4E758230C9A01241370B1E77C
:104980000C9A603301241370ACE7202400265EE704
:10499000023CBA06E9D40C9A12191C00D8E70C9A0A
:1049A0009246534462221A709AE7C04610B5002816
:1049B00000D110BD01F016FBFBE7C0460B0010B59F
:1049C000002802D049681B68984710BDF0B5DE4644
:1049D00057464E464546E0B59BB09B46249B8946CC
:1049E0009846259B0B900C924046424619009A46E9
:1049F000FFF7D3FA002800D0D8E001224046514604
:104A0000774B5242FFF7C4FA002800D0CEE00122D3
:104A100040465146734B5242FFF7A4FA002800D09B
:104A2000C4E00022002340465146FFF79BFA0028CD
:104A300000D0B9E1424653460A9209938023289A4E
:104A4000DB001A400E92289A1A4201D106232693BF
:104A50000A9A099B1600134300D0C7E0289B002543
:104A600000261B0500D49BE100230D93269A0D9B85
:104A70009A4200DC9FE1D01A431E26938023289A95
:104A8000DB001A430023002728920D93279B002464
:104A9000BB4200D9DC1B0223289A1A400E92289AA6
:104AA000134203D07B427B415B421C400D9B002B99
:104AB00007D00A9809992A003300FFF7F2F90A9003
:104AC00009910022002340465146FFF74BFA002887
:104AD00005D0802000068446099961440991289AEE
:104AE000414B0B9D13400493269B0A9A0293099B0A
:104AF00003940092019349465B4628000C9A00F00B
:104B00008BF90400002F62D0289B220098061F23F7
:104B1000C0179843631C984649465B466530A847D2
:104B20000D9B0025DA179C18DB0F9A465440013F75
:104B300001E0202D13D00AAA94461F2320006344CD
:104B40000A2101355E19FEF75FFF30313170200018
:104B50000A21FEF759FF26000400092EE9D8052393
:104B60000693002304930A330393534605970B9F40
:104B7000029312AB009342465B46494638000195CA
:104B8000FFF72EFE0E9B0400002B20D00C9BC51AB5
:104B9000279BAB421BD91E0022005B4649462020C2
:104BA0000135B8470134AE42F6D810E0289B4246A2
:104BB0000493279B49460393269B0B9802935346E5
:104BC000009201935B460C9A00F026F90400200045
:104BD0001BB0F0BCBB46B246A946A046F0BDC046DD
:104BE000FFFFEF7FFFFFEFFFFFF7FFFF734B099F13
:104BF0009C467800400D6044FFF7E0F9704A714B25
:104C0000FFF76DF9704A714BFFF742F93B03704AA9
:104C10001B0B1A4304000D00300011006D4B0022E5
:104C2000FFF72DF96C4A6D4BFFF759F902000B00A5
:104C300020002900FFF72CF9FFF7D8F90D90FFF7B6
:104C4000BDF9674A674B04000D00FFF748F90022E1
:104C5000654BFFF71DF9FFF7C9F9644A0600644B7D
:104C600020002900FFF73BF9040030000D000F96EB
:104C7000FFF7A4F95F4A604BFFF731F902000B0020
:104C800020002900FFF7FBF802000B0006000F00D0
:104C9000FFF725F9320004000D003B003000390019
:104CA000FFF7F6F8002210901191544B20002900D4
:104CB000FFF7F7F80022524BFFF7EAF802000B006B
:104CC00020002900FFF7EDF800224E4BFFF7E0F837
:104CD00002000B0020002900FFF7E3F80D008021FF
:104CE000040032003B000020C905FFF7C8F80200AD
:104CF0000B0020002900FFF7CBF802000B001098F2
:104D00001199FFF7CEF80022314BFFF7C1F83E4B67
:104D10000F9C9C46644400222305FFF7E0F8050041
:104D20000E0002000B000A980999FFF71BF90028F2
:104D30000AD00D9B2800013B31000D930022304B1F
:104D4000FFF7AFF805000E00C6270D992B00633161
:104D50008F42BF4128997F420437090500D495E668
:104D6000334300D182E6099C284A2100284B0A9847
:104D7000FFF706F9002808D000222100254B0A98E9
:104D8000FFF7F0F8002800D070E6269B002B00D13A
:104D90007CE60E9B5A1E9341269AD31A269375E6FB
:104DA000002304270D9371E643460A9380231B06D4
:104DB0005344099342E6002326935FE601FCFFFF7C
:104DC000FB799F501344D33FB3C8608B288AC63FFA
:104DD0000000F03F0000F83F61436F63A787D23FB8
:104DE00071A379094F930A400000E03F1655B5BB07
:104DF000B16B0240EF39FAFE422EE63F00002C4034
:104E00000000244000001840FF0300002D431CEB6D
:104E1000E2361A3F80842E41F0B54E46DE465746B4
:104E20004546E0B597B09946209E219F229B834638
:104E3000984607910C923B00320030003900FFF792
:104E4000ACF8002800D0A9E1012230003900CA4B9B
:104E50005242FFF787F8002800D0E1E0012230003D
:104E60003900C64B5242FFF793F8002800D0B7E054
:104E7000002230003900C24BFFF78AF8002800D02A
:104E800099E0002230003900BE4BFFF76BF8002894
:104E900000D090E00022002330003900FFF762F8D4
:104EA000002800D0B1E000230D93249B5B0501D4C2
:104EB0000623984608AB9C4617220024302341461F
:104EC000624404E0013413550139202C01D0092932
:104ED000F8D8884630003900FFF788F84346DA00F2
:104EE000A94B05009B181A685B6808920993FFF7A5
:104EF00065F802000B0030003900FEF7C0FF089A89
:104F0000099BFEF7ECFF0A900B91FFF793F882469E
:104F1000FFF750F802000B000A980B99FEF7AFFF5D
:104F200000229A4B0A900B91FFF732F8002800D12B
:104F3000C0E001239C46E2445046FFF73BF80200E4
:104F40000B0008980999FFF713F8002802D00023F6
:104F50009A4601354346002B6AD008AB17269C467B
:104F600008956644554614E001235B4243440A21F8
:104F700028009A46FEF748FD013430313719397060
:104F800028000A21FEF740FD092D00D8D0E0D046C8
:104F90000500202CE8D10EAB98460323249A134039
:104FA000012B00D196E02023249A01930392239AA7
:104FB000434602921EE0249B58460493239B00968E
:104FC0000197039343460C9A029307994B46FFF7C8
:104FD000FDFC17B0F0BCBB46B246A946A046F0BDEA
:104FE000249B5B070ED40322694B24990192039101
:104FF00023990291009358464B460C9A0799FFF764
:10500000A1FBE6E70422634BEFE73B003200002000
:105010000021FEF734FF012306000F000D9344E743
:10502000249B0393239B0293042301935A4BE1E7B0
:105030002800FEF7C3FF02000B0030003900FEF726
:105040001EFF524B002206000F00FEF78BFF0EAB37
:10505000984600280AD10022300039004B4BFEF759
:1050600097FF002802D1EB0700D50135202C94D002
:1050700008AA94461723280063440A2101341E1904
:10508000FEF79AFC3031280031700A21FEF794FCBB
:10509000051EEBD10323249A1340012B1BD0202C97
:1050A00000D180E70D9B002B35D02D224146631C9B
:1050B0000A5579E700220A980B99344BFEF752FF04
:1050C000002800D046E75346002B51D101239C46CF
:1050D000E2443FE72024239B002BE0D00D9B002BD4
:1050E00003D1249A0C33134202D0239B013B239318
:1050F000239BA342D3D908AB9C461722302362449A
:10510000202C00D14FE72399013413558C42C6D08F
:10511000202CF8D147E7249B5B0724D4249A230052
:10512000120700D440E72022414601330A553BE7ED
:105130005746089D202C00D12DE722003021404603
:10514000002F09D00132B154202A00D123E7D343E4
:105150001B191B18002BF5D10EAB98462E23414688
:10516000541C8B5482E72B224146631C0A551BE7D3
:10517000DB0700D4EEE6A9E7FFFFEFFFFFFFEF7FBD
:1051800065CDCD4165CDCDC1989300100000E03FC5
:10519000A0910010A4910010B0910010249B0393E3
:1051A000239B029303230193004B23E7AC91001050
:1051B000F0B5DE464E4657464546E0B59FB01C006A
:1051C000289B91460993C94AC94B8B4608901A609F
:1051D000002900D118E2002320789A46002800D147
:1051E0001AE226001D005C460AE02A006F1C4B46AE
:1051F000089D2100A8473D0001363078002870D076
:105200002528F2D110239B46083B9A46043B98463A
:10521000023B00219C46721C107816000300203BC4
:10522000DBB2102B03D8B34F9B00FB589F46030003
:10523000303B092B32D900230A932A2868D0002357
:1052400098462E283ED00300683BDBB2122B1CD8B8
:10525000A94A9B00D3589F46012301321943DBE73B
:10526000634601321943D7E7434601321943D3E776
:105270005B4601321943CFE7534601321943CBE76E
:1052800080235B007078194301360300253BDBB2B5
:10529000532BAAD8994A9B00D3589F460027030056
:1052A000B800C01901364000C018337830381A00F1
:1052B000303A0700092AF3D90A90180000239846CB
:1052C0002E28C0D180237078DB0019430300303BC7
:1052D000721C092B00D8A1E12A2800D1B2E11600E6
:1052E000B1E7A346AA462C00D14503D801235B426F
:1052F0004B449A464B46524659460020089DA847C3
:1053000020001FB0F0BCBB46B246A946A046F0BD87
:10531000099B40CB0A96002E03DB50780993561C5C
:105320008DE72838014370420A9009935078561C43
:1053300085E7782800D1DFE1582800D14CE26F28BA
:1053400000D14FE3622801D100F030FC10230A00A5
:105350009A430B92692801D000F0A9FC0A230C9310
:105360004B0500D5D0E10B9A802311009B0019401A
:105370008B461A4200D0A1E2802311005B00194045
:105380008A461A4200D0B6E313005B0600D5EDE270
:10539000130009991B0601D400F076FC08C91BB262
:1053A000D8171A18424092B209919346DA0F129216
:1053B000002B09D1802310220B99DB000B40914375
:1053C0000B91002B00D0E4E20B9A6123920600D5EA
:1053D00041230EA91F228C46DBB262440A3B5F4682
:1053E0001395A34655460C9CB2460D9316000AE051
:1053F0003033DBB201357355A74200D2EDE2202DE8
:1054000000D1EAE2070021003800FEF7FDFACBB236
:105410000929EDD90D9A94466344DBB2EAE780236B
:105420009B007078194301362FE77078682800D107
:10543000CDE180230136194327E770786C2800D12D
:10544000BFE180235B00194301361EE7462800D1E7
:105450009BE10722099B0491073393430A9A1900A1
:105460000392424602920CC9089800920193099156
:105470002A004B462100FFF7CFFC01360500BCE6B1
:105480002A006F1C4B46089D21002520A8470136A5
:105490003D00B2E68B0700D4ADE1099B2A009A4695
:1054A0006B1C9846534601CB21009A46089F4B46F9
:1054B000C0B2B8470A9B9C466544012B00D886E2DF
:1054C000089B4746B04626004C4699463A002300C2
:1054D000013731002020C847AF42F7D1A1465346DB
:1054E000340046460993013687E6C046B1510010A4
:1054F000DC4C0320B8910010FC9100104892001081
:10550000099B04CB9B4643460992002B00D1C6E081
:1055100013789C46002B00D1BDE34346013B099A1A
:105520000133D0180A9F130001E0834203D05A7858
:105530000133002AF9D1099A0A979B1A0B93802309
:105540000A00DB001A400C92194204D00B9B434521
:1055500001D943460B9302231A000A400D920B42D5
:1055600000D187E16046002800D168E10C9B002B48
:1055700000D10DE1A844C246099B57465B1B9846E3
:10558000089BB2462A0026004C46994609E02300B3
:105590003100551CC8474346585D002800D126E11C
:1055A0002A009742F3D1A1463D00340056460D9B98
:1055B000002B00D043E15B46013609931DE6099BB1
:1055C0001A0008CA9246002B48D0212211438B466C
:1055D0000EA884461F216144099500220F27A44686
:1055E0000D0002E0202A0CD00B003C001C402000E3
:1055F0003730092C00D807380132A85419090F2B6D
:10560000F0D86446099D32E0DC4B207808930023F3
:105610009A46002800D0E4E5002465E643460600EB
:105620000A9F9800C01801324000801916780300C4
:1056300030003038303B0928F3D930009846160046
:105640000A9700E6099B023604CB9046D2434046B7
:10565000D2171040804609933078F4E510220800F4
:10566000904311321043834600224905B0D55B4672
:1056700006930823059343460493102303930023C2
:10568000029316AB019200932A004B462100089822
:10569000FFF7A6F85346050001360993ADE51378E8
:1056A0009C46002B00D1F7E202235B4237E7202320
:1056B00002009A43472A04D180231B011943022385
:1056C0009843452801D1202319430722099B0491BF
:1056D000073393430A9A19000392424602920CC977
:1056E00008980092019309912A004B462100FFF788
:1056F0006DF90136050080E510230C930C230A0098
:105700009A430B924B0503D501230B9A9A430B92B4
:10571000692800D127E6642800D124E60B9A80236B
:1057200011009B0019408B461A4200D066E180238D
:1057300011005B0019408A461A4200D039E213007A
:105740005B0600D53CE113001B0600D4A6E2099BD2
:1057500004CB1204120C934609935B46002B00D035
:105760009AE10B9A1033110099430B91520500D422
:1057700092E100239A460B9B06930A9B05934346AE
:1057800004930C9B039300230CE12023194360E650
:10579000099B0A9A5B1B98464B4691461F00B246EE
:1057A0002600089C2A003B003100A04743460135F3
:1057B000585D0028F6D14A463400B94656460A924A
:1057C000F5E6C0239B00B078194302365DE5C0239F
:1057D000B0781943023658E50C230A009A43143373
:1057E0001A43103B0B920C934B058DD496E7A146C0
:1057F00034005646DBE60A9A012A00D853E26B1EB3
:105800009F18089BB04626004C4699462A00230064
:10581000013531002020C847BD42F7D1A1463400F0
:105820004646099B3A0001CB210098467D1C4B4619
:10583000089FC0B2B847434601360993DDE40B9B8D
:105840000A9AA8469A4200D8B5E694466544ED1AED
:10585000089B4746B04626004C4699463A0023002E
:10586000013731002020C847AF42F7D1A1463400AC
:105870004646A0E60B9A0A99531C914200D814E2BE
:105880004B199B1A1F00089BB24626004C469946AE
:105890002A002300013531002020C847BD42F7D13E
:1058A0000A9BA14601330B93099B34001B78564693
:1058B0009C466046002800D058E67CE60722099BFB
:1058C00007339343013294469C4462465F680992D1
:1058D0001A68FB1710931193109811990300534005
:1058E0000E930B007B400F9394460E9A0F9B121A57
:1058F0008B410E920F93FB0F6246129300233A43A3
:105900009B463DD00B9A6123920600D5412300228D
:10591000DBB20EA90A3B8C4692460D9343461F32DA
:1059200062441395159655460E9E0F9FA2469046CB
:105930000C9C14930CE03032D2B2434601355A55D8
:10594000BB4500D18AE1202D00D18AE106000F007D
:105950002200002330003900FEF794F8D2B2092A61
:10596000E9D90D9B9C466244D2B2E6E7FF23099930
:1059700004C913401A00099117E5C04641470010B9
:105980000B9A1033110099430B915205BAD500239D
:105990009A460B9B06930A9B0593434604930C9BE4
:1059A0000393129B02935346019316AB2A00009374
:1059B00021004B460898FEF713FF013605001CE452
:1059C000FF22099B02CB11408B460993C5E6534643
:1059D000454609930136FFF710FC56465C46AA4639
:1059E000139DD6E708230C930B910B99642800D0E4
:1059F00084E60B9B5B0500D586E6B4E40722099B91
:105A000007339343013294469C44624609921A68D4
:105A10005B6810009B4613005A46134307D10B9A4C
:105A20001033110099430B91520500D5A1E60B9A52
:105A30006123920600D541230022DBB20EA90A3B66
:105A40008C4692460D9343461F3262445F46129540
:105A5000A34655460400B24690460C9E13930DE0B3
:105A60003032D2B2434601355A550023BB4200D1F1
:105A700000E1202D00D100E104000F0032000023DE
:105A800020003900FDF7FEFFD2B2092AE8D90D9BAC
:105A90009C466244D2B2E5E70B9A6123920600D598
:105AA0004123DBB20EA90A3B1F228C460D93230033
:105AB00062445C461295170055469B46B2460C9EC2
:105AC00008E03033DBB201357B55B4420ED3202DD4
:105AD0000CD0040031002000FDF796FFCBB209295D
